{
  "_format": "hh-sol-artifact-1",
  "contractName": "BeforeAwardListenerLibrary",
  "sourceName": "pooltogether/pooltogether-pool-contracts/contracts/prize-strategy/BeforeAwardListenerLibrary.sol",
  "abi": [
    {
      "inputs": [],
      "name": "ERC165_INTERFACE_ID_BEFORE_AWARD_LISTENER",
      "outputs": [
        {
          "internalType": "bytes4",
          "name": "",
          "type": "bytes4"
        }
      ],
      "stateMutability": "view",
      "type": "function"
    }
  ],
  "bytecode": "0x60b4610025600b82828239805160001a60731461001857fe5b30600052607381538281f3fe730000000000000000000000000000000000000000301460806040526004361060335760003560e01c80638a741914146038575b600080fd5b603e6073565b60405180827bffffffffffffffffffffffffffffffffffffffffffffffffffffffff1916815260200191505060405180910390f35b634cdf9c3e60e01b8156fea264697066735822122032334671810fa342d0d32eeb5015a86264aaeef3b7362525f99a6a83875f81f164736f6c634300060c0033",
  "linkReferences": {},
  "deployedLinkReferences": {}
}