{
  "_format": "hh-sol-artifact-1",
  "contractName": "UnipopPrizeStrategy",
  "sourceName": "contracts/UnipopPrizeStrategy.sol",
  "abi": [
    {
      "anonymous": false,
      "inputs": [
        {
          "indexed": true,
          "internalType": "contract BeforeAwardListenerInterface",
          "name": "beforeAwardListener",
          "type": "address"
        }
      ],
      "name": "BeforeAwardListenerSet",
      "type": "event"
    },
    {
      "anonymous": false,
      "inputs": [
        {
          "indexed": true,
          "internalType": "contract IERC20Upgradeable",
          "name": "externalErc20",
          "type": "address"
        }
      ],
      "name": "ExternalErc20AwardAdded",
      "type": "event"
    },
    {
      "anonymous": false,
      "inputs": [
        {
          "indexed": true,
          "internalType": "contract IERC20Upgradeable",
          "name": "externalErc20Award",
          "type": "address"
        }
      ],
      "name": "ExternalErc20AwardRemoved",
      "type": "event"
    },
    {
      "anonymous": false,
      "inputs": [
        {
          "indexed": true,
          "internalType": "contract IERC721Upgradeable",
          "name": "externalErc721",
          "type": "address"
        },
        {
          "indexed": false,
          "internalType": "uint256[]",
          "name": "tokenIds",
          "type": "uint256[]"
        }
      ],
      "name": "ExternalErc721AwardAdded",
      "type": "event"
    },
    {
      "anonymous": false,
      "inputs": [
        {
          "indexed": true,
          "internalType": "contract IERC721Upgradeable",
          "name": "externalErc721Award",
          "type": "address"
        }
      ],
      "name": "ExternalErc721AwardRemoved",
      "type": "event"
    },
    {
      "anonymous": false,
      "inputs": [
        {
          "indexed": false,
          "internalType": "uint256",
          "name": "prizePeriodStart",
          "type": "uint256"
        },
        {
          "indexed": false,
          "internalType": "uint256",
          "name": "prizePeriodSeconds",
          "type": "uint256"
        },
        {
          "indexed": true,
          "internalType": "contract PrizePool",
          "name": "prizePool",
          "type": "address"
        },
        {
          "indexed": false,
          "internalType": "contract TicketInterface",
          "name": "ticket",
          "type": "address"
        },
        {
          "indexed": false,
          "internalType": "contract IERC20Upgradeable",
          "name": "sponsorship",
          "type": "address"
        },
        {
          "indexed": false,
          "internalType": "contract RNGInterface",
          "name": "rng",
          "type": "address"
        },
        {
          "indexed": false,
          "internalType": "contract IERC20Upgradeable[]",
          "name": "externalErc20Awards",
          "type": "address[]"
        }
      ],
      "name": "Initialized",
      "type": "event"
    },
    {
      "anonymous": false,
      "inputs": [],
      "name": "NoWinners",
      "type": "event"
    },
    {
      "anonymous": false,
      "inputs": [
        {
          "indexed": false,
          "internalType": "uint256",
          "name": "numberOfWinners",
          "type": "uint256"
        }
      ],
      "name": "NumberOfWinnersSet",
      "type": "event"
    },
    {
      "anonymous": false,
      "inputs": [
        {
          "indexed": true,
          "internalType": "address",
          "name": "previousOwner",
          "type": "address"
        },
        {
          "indexed": true,
          "internalType": "address",
          "name": "newOwner",
          "type": "address"
        }
      ],
      "name": "OwnershipTransferred",
      "type": "event"
    },
    {
      "anonymous": false,
      "inputs": [
        {
          "indexed": true,
          "internalType": "contract PeriodicPrizeStrategyListenerInterface",
          "name": "periodicPrizeStrategyListener",
          "type": "address"
        }
      ],
      "name": "PeriodicPrizeStrategyListenerSet",
      "type": "event"
    },
    {
      "anonymous": false,
      "inputs": [
        {
          "indexed": false,
          "internalType": "uint256",
          "name": "prizePeriodSeconds",
          "type": "uint256"
        }
      ],
      "name": "PrizePeriodSecondsUpdated",
      "type": "event"
    },
    {
      "anonymous": false,
      "inputs": [
        {
          "indexed": true,
          "internalType": "address",
          "name": "operator",
          "type": "address"
        },
        {
          "indexed": true,
          "internalType": "address",
          "name": "prizePool",
          "type": "address"
        },
        {
          "indexed": true,
          "internalType": "uint32",
          "name": "rngRequestId",
          "type": "uint32"
        },
        {
          "indexed": false,
          "internalType": "uint32",
          "name": "rngLockBlock",
          "type": "uint32"
        }
      ],
      "name": "PrizePoolAwardCancelled",
      "type": "event"
    },
    {
      "anonymous": false,
      "inputs": [
        {
          "indexed": true,
          "internalType": "address",
          "name": "operator",
          "type": "address"
        },
        {
          "indexed": true,
          "internalType": "address",
          "name": "prizePool",
          "type": "address"
        },
        {
          "indexed": true,
          "internalType": "uint32",
          "name": "rngRequestId",
          "type": "uint32"
        },
        {
          "indexed": false,
          "internalType": "uint32",
          "name": "rngLockBlock",
          "type": "uint32"
        }
      ],
      "name": "PrizePoolAwardStarted",
      "type": "event"
    },
    {
      "anonymous": false,
      "inputs": [
        {
          "indexed": true,
          "internalType": "address",
          "name": "operator",
          "type": "address"
        },
        {
          "indexed": false,
          "internalType": "uint256",
          "name": "randomNumber",
          "type": "uint256"
        }
      ],
      "name": "PrizePoolAwarded",
      "type": "event"
    },
    {
      "anonymous": false,
      "inputs": [
        {
          "indexed": true,
          "internalType": "address",
          "name": "operator",
          "type": "address"
        },
        {
          "indexed": true,
          "internalType": "uint256",
          "name": "prizePeriodStartedAt",
          "type": "uint256"
        }
      ],
      "name": "PrizePoolOpened",
      "type": "event"
    },
    {
      "anonymous": false,
      "inputs": [],
      "name": "RngRequestFailed",
      "type": "event"
    },
    {
      "anonymous": false,
      "inputs": [
        {
          "indexed": false,
          "internalType": "uint32",
          "name": "rngRequestTimeout",
          "type": "uint32"
        }
      ],
      "name": "RngRequestTimeoutSet",
      "type": "event"
    },
    {
      "anonymous": false,
      "inputs": [
        {
          "indexed": true,
          "internalType": "contract RNGInterface",
          "name": "rngService",
          "type": "address"
        }
      ],
      "name": "RngServiceUpdated",
      "type": "event"
    },
    {
      "anonymous": false,
      "inputs": [
        {
          "indexed": true,
          "internalType": "contract TokenListenerInterface",
          "name": "tokenListener",
          "type": "address"
        }
      ],
      "name": "TokenListenerUpdated",
      "type": "event"
    },
    {
      "inputs": [
        {
          "internalType": "contract IERC20Upgradeable",
          "name": "_externalErc20",
          "type": "address"
        }
      ],
      "name": "addExternalErc20Award",
      "outputs": [],
      "stateMutability": "nonpayable",
      "type": "function"
    },
    {
      "inputs": [
        {
          "internalType": "contract IERC20Upgradeable[]",
          "name": "_externalErc20s",
          "type": "address[]"
        }
      ],
      "name": "addExternalErc20Awards",
      "outputs": [],
      "stateMutability": "nonpayable",
      "type": "function"
    },
    {
      "inputs": [
        {
          "internalType": "contract IERC721Upgradeable",
          "name": "_externalErc721",
          "type": "address"
        },
        {
          "internalType": "uint256[]",
          "name": "_tokenIds",
          "type": "uint256[]"
        }
      ],
      "name": "addExternalErc721Award",
      "outputs": [],
      "stateMutability": "nonpayable",
      "type": "function"
    },
    {
      "inputs": [],
      "name": "beforeAwardListener",
      "outputs": [
        {
          "internalType": "contract BeforeAwardListenerInterface",
          "name": "",
          "type": "address"
        }
      ],
      "stateMutability": "view",
      "type": "function"
    },
    {
      "inputs": [
        {
          "internalType": "address",
          "name": "to",
          "type": "address"
        },
        {
          "internalType": "uint256",
          "name": "amount",
          "type": "uint256"
        },
        {
          "internalType": "address",
          "name": "controlledToken",
          "type": "address"
        },
        {
          "internalType": "address",
          "name": "referrer",
          "type": "address"
        }
      ],
      "name": "beforeTokenMint",
      "outputs": [],
      "stateMutability": "nonpayable",
      "type": "function"
    },
    {
      "inputs": [
        {
          "internalType": "address",
          "name": "from",
          "type": "address"
        },
        {
          "internalType": "address",
          "name": "to",
          "type": "address"
        },
        {
          "internalType": "uint256",
          "name": "amount",
          "type": "uint256"
        },
        {
          "internalType": "address",
          "name": "controlledToken",
          "type": "address"
        }
      ],
      "name": "beforeTokenTransfer",
      "outputs": [],
      "stateMutability": "nonpayable",
      "type": "function"
    },
    {
      "inputs": [
        {
          "internalType": "uint256",
          "name": "currentTime",
          "type": "uint256"
        }
      ],
      "name": "calculateNextPrizePeriodStartTime",
      "outputs": [
        {
          "internalType": "uint256",
          "name": "",
          "type": "uint256"
        }
      ],
      "stateMutability": "view",
      "type": "function"
    },
    {
      "inputs": [],
      "name": "canCompleteAward",
      "outputs": [
        {
          "internalType": "bool",
          "name": "",
          "type": "bool"
        }
      ],
      "stateMutability": "view",
      "type": "function"
    },
    {
      "inputs": [],
      "name": "canStartAward",
      "outputs": [
        {
          "internalType": "bool",
          "name": "",
          "type": "bool"
        }
      ],
      "stateMutability": "view",
      "type": "function"
    },
    {
      "inputs": [],
      "name": "cancelAward",
      "outputs": [],
      "stateMutability": "nonpayable",
      "type": "function"
    },
    {
      "inputs": [],
      "name": "completeAward",
      "outputs": [],
      "stateMutability": "nonpayable",
      "type": "function"
    },
    {
      "inputs": [],
      "name": "currentPrize",
      "outputs": [
        {
          "internalType": "uint256",
          "name": "",
          "type": "uint256"
        }
      ],
      "stateMutability": "view",
      "type": "function"
    },
    {
      "inputs": [
        {
          "internalType": "uint256",
          "name": "secondsPerBlockMantissa",
          "type": "uint256"
        }
      ],
      "name": "estimateRemainingBlocksToPrize",
      "outputs": [
        {
          "internalType": "uint256",
          "name": "",
          "type": "uint256"
        }
      ],
      "stateMutability": "view",
      "type": "function"
    },
    {
      "inputs": [],
      "name": "getExternalErc20Awards",
      "outputs": [
        {
          "internalType": "address[]",
          "name": "",
          "type": "address[]"
        }
      ],
      "stateMutability": "view",
      "type": "function"
    },
    {
      "inputs": [
        {
          "internalType": "contract IERC721Upgradeable",
          "name": "_externalErc721",
          "type": "address"
        }
      ],
      "name": "getExternalErc721AwardTokenIds",
      "outputs": [
        {
          "internalType": "uint256[]",
          "name": "",
          "type": "uint256[]"
        }
      ],
      "stateMutability": "view",
      "type": "function"
    },
    {
      "inputs": [],
      "name": "getExternalErc721Awards",
      "outputs": [
        {
          "internalType": "address[]",
          "name": "",
          "type": "address[]"
        }
      ],
      "stateMutability": "view",
      "type": "function"
    },
    {
      "inputs": [],
      "name": "getLastRngLockBlock",
      "outputs": [
        {
          "internalType": "uint32",
          "name": "",
          "type": "uint32"
        }
      ],
      "stateMutability": "view",
      "type": "function"
    },
    {
      "inputs": [],
      "name": "getLastRngRequestId",
      "outputs": [
        {
          "internalType": "uint32",
          "name": "",
          "type": "uint32"
        }
      ],
      "stateMutability": "view",
      "type": "function"
    },
    {
      "inputs": [
        {
          "internalType": "uint256",
          "name": "_prizePeriodStart",
          "type": "uint256"
        },
        {
          "internalType": "uint256",
          "name": "_prizePeriodSeconds",
          "type": "uint256"
        },
        {
          "internalType": "contract PrizePool",
          "name": "_prizePool",
          "type": "address"
        },
        {
          "internalType": "contract TicketInterface",
          "name": "_ticket",
          "type": "address"
        },
        {
          "internalType": "contract IERC20Upgradeable",
          "name": "_sponsorship",
          "type": "address"
        },
        {
          "internalType": "contract RNGInterface",
          "name": "_rng",
          "type": "address"
        },
        {
          "internalType": "contract IERC20Upgradeable[]",
          "name": "externalErc20Awards",
          "type": "address[]"
        }
      ],
      "name": "initialize",
      "outputs": [],
      "stateMutability": "nonpayable",
      "type": "function"
    },
    {
      "inputs": [
        {
          "internalType": "uint256",
          "name": "_prizePeriodStart",
          "type": "uint256"
        },
        {
          "internalType": "uint256",
          "name": "_prizePeriodSeconds",
          "type": "uint256"
        },
        {
          "internalType": "contract PrizePool",
          "name": "_prizePool",
          "type": "address"
        },
        {
          "internalType": "contract TicketInterface",
          "name": "_ticket",
          "type": "address"
        },
        {
          "internalType": "contract IERC20Upgradeable",
          "name": "_sponsorship",
          "type": "address"
        },
        {
          "internalType": "contract RNGInterface",
          "name": "_rng",
          "type": "address"
        },
        {
          "internalType": "uint256",
          "name": "_numberOfWinners",
          "type": "uint256"
        }
      ],
      "name": "initializeMultipleWinners",
      "outputs": [],
      "stateMutability": "nonpayable",
      "type": "function"
    },
    {
      "inputs": [],
      "name": "isPrizePeriodOver",
      "outputs": [
        {
          "internalType": "bool",
          "name": "",
          "type": "bool"
        }
      ],
      "stateMutability": "view",
      "type": "function"
    },
    {
      "inputs": [],
      "name": "isRngCompleted",
      "outputs": [
        {
          "internalType": "bool",
          "name": "",
          "type": "bool"
        }
      ],
      "stateMutability": "view",
      "type": "function"
    },
    {
      "inputs": [],
      "name": "isRngRequested",
      "outputs": [
        {
          "internalType": "bool",
          "name": "",
          "type": "bool"
        }
      ],
      "stateMutability": "view",
      "type": "function"
    },
    {
      "inputs": [],
      "name": "isRngTimedOut",
      "outputs": [
        {
          "internalType": "bool",
          "name": "",
          "type": "bool"
        }
      ],
      "stateMutability": "view",
      "type": "function"
    },
    {
      "inputs": [],
      "name": "numberOfWinners",
      "outputs": [
        {
          "internalType": "uint256",
          "name": "",
          "type": "uint256"
        }
      ],
      "stateMutability": "view",
      "type": "function"
    },
    {
      "inputs": [],
      "name": "owner",
      "outputs": [
        {
          "internalType": "address",
          "name": "",
          "type": "address"
        }
      ],
      "stateMutability": "view",
      "type": "function"
    },
    {
      "inputs": [],
      "name": "periodicPrizeStrategyListener",
      "outputs": [
        {
          "internalType": "contract PeriodicPrizeStrategyListenerInterface",
          "name": "",
          "type": "address"
        }
      ],
      "stateMutability": "view",
      "type": "function"
    },
    {
      "inputs": [],
      "name": "prizePeriodEndAt",
      "outputs": [
        {
          "internalType": "uint256",
          "name": "",
          "type": "uint256"
        }
      ],
      "stateMutability": "view",
      "type": "function"
    },
    {
      "inputs": [],
      "name": "prizePeriodRemainingSeconds",
      "outputs": [
        {
          "internalType": "uint256",
          "name": "",
          "type": "uint256"
        }
      ],
      "stateMutability": "view",
      "type": "function"
    },
    {
      "inputs": [],
      "name": "prizePeriodSeconds",
      "outputs": [
        {
          "internalType": "uint256",
          "name": "",
          "type": "uint256"
        }
      ],
      "stateMutability": "view",
      "type": "function"
    },
    {
      "inputs": [],
      "name": "prizePeriodStartedAt",
      "outputs": [
        {
          "internalType": "uint256",
          "name": "",
          "type": "uint256"
        }
      ],
      "stateMutability": "view",
      "type": "function"
    },
    {
      "inputs": [],
      "name": "prizePool",
      "outputs": [
        {
          "internalType": "contract PrizePool",
          "name": "",
          "type": "address"
        }
      ],
      "stateMutability": "view",
      "type": "function"
    },
    {
      "inputs": [
        {
          "internalType": "contract IERC20Upgradeable",
          "name": "_externalErc20",
          "type": "address"
        },
        {
          "internalType": "contract IERC20Upgradeable",
          "name": "_prevExternalErc20",
          "type": "address"
        }
      ],
      "name": "removeExternalErc20Award",
      "outputs": [],
      "stateMutability": "nonpayable",
      "type": "function"
    },
    {
      "inputs": [
        {
          "internalType": "contract IERC721Upgradeable",
          "name": "_externalErc721",
          "type": "address"
        },
        {
          "internalType": "contract IERC721Upgradeable",
          "name": "_prevExternalErc721",
          "type": "address"
        }
      ],
      "name": "removeExternalErc721Award",
      "outputs": [],
      "stateMutability": "nonpayable",
      "type": "function"
    },
    {
      "inputs": [],
      "name": "renounceOwnership",
      "outputs": [],
      "stateMutability": "nonpayable",
      "type": "function"
    },
    {
      "inputs": [],
      "name": "rng",
      "outputs": [
        {
          "internalType": "contract RNGInterface",
          "name": "",
          "type": "address"
        }
      ],
      "stateMutability": "view",
      "type": "function"
    },
    {
      "inputs": [],
      "name": "rngRequestTimeout",
      "outputs": [
        {
          "internalType": "uint32",
          "name": "",
          "type": "uint32"
        }
      ],
      "stateMutability": "view",
      "type": "function"
    },
    {
      "inputs": [
        {
          "internalType": "contract BeforeAwardListenerInterface",
          "name": "_beforeAwardListener",
          "type": "address"
        }
      ],
      "name": "setBeforeAwardListener",
      "outputs": [],
      "stateMutability": "nonpayable",
      "type": "function"
    },
    {
      "inputs": [
        {
          "internalType": "uint256",
          "name": "count",
          "type": "uint256"
        }
      ],
      "name": "setNumberOfWinners",
      "outputs": [],
      "stateMutability": "nonpayable",
      "type": "function"
    },
    {
      "inputs": [
        {
          "internalType": "contract PeriodicPrizeStrategyListenerInterface",
          "name": "_periodicPrizeStrategyListener",
          "type": "address"
        }
      ],
      "name": "setPeriodicPrizeStrategyListener",
      "outputs": [],
      "stateMutability": "nonpayable",
      "type": "function"
    },
    {
      "inputs": [
        {
          "internalType": "uint256",
          "name": "_prizePeriodSeconds",
          "type": "uint256"
        }
      ],
      "name": "setPrizePeriodSeconds",
      "outputs": [],
      "stateMutability": "nonpayable",
      "type": "function"
    },
    {
      "inputs": [
        {
          "internalType": "uint32",
          "name": "_rngRequestTimeout",
          "type": "uint32"
        }
      ],
      "name": "setRngRequestTimeout",
      "outputs": [],
      "stateMutability": "nonpayable",
      "type": "function"
    },
    {
      "inputs": [
        {
          "internalType": "contract RNGInterface",
          "name": "rngService",
          "type": "address"
        }
      ],
      "name": "setRngService",
      "outputs": [],
      "stateMutability": "nonpayable",
      "type": "function"
    },
    {
      "inputs": [
        {
          "internalType": "contract TokenListenerInterface",
          "name": "_tokenListener",
          "type": "address"
        }
      ],
      "name": "setTokenListener",
      "outputs": [],
      "stateMutability": "nonpayable",
      "type": "function"
    },
    {
      "inputs": [],
      "name": "sponsorship",
      "outputs": [
        {
          "internalType": "contract IERC20Upgradeable",
          "name": "",
          "type": "address"
        }
      ],
      "stateMutability": "view",
      "type": "function"
    },
    {
      "inputs": [],
      "name": "startAward",
      "outputs": [],
      "stateMutability": "nonpayable",
      "type": "function"
    },
    {
      "inputs": [
        {
          "internalType": "bytes4",
          "name": "interfaceId",
          "type": "bytes4"
        }
      ],
      "name": "supportsInterface",
      "outputs": [
        {
          "internalType": "bool",
          "name": "",
          "type": "bool"
        }
      ],
      "stateMutability": "view",
      "type": "function"
    },
    {
      "inputs": [],
      "name": "ticket",
      "outputs": [
        {
          "internalType": "contract TicketInterface",
          "name": "",
          "type": "address"
        }
      ],
      "stateMutability": "view",
      "type": "function"
    },
    {
      "inputs": [],
      "name": "tokenListener",
      "outputs": [
        {
          "internalType": "contract TokenListenerInterface",
          "name": "",
          "type": "address"
        }
      ],
      "stateMutability": "view",
      "type": "function"
    },
    {
      "inputs": [
        {
          "internalType": "address",
          "name": "newOwner",
          "type": "address"
        }
      ],
      "name": "transferOwnership",
      "outputs": [],
      "stateMutability": "nonpayable",
      "type": "function"
    }
  ],
  "bytecode": "0x608060405234801561001057600080fd5b506172ee80620000216000396000f3fe608060405234801561001057600080fd5b50600436106102d65760003560e01c806372f33ea911610182578063acca5b95116100e9578063c48ddbcb116100a2578063d605787b1161007c578063d605787b14610e1f578063dfb2f13b14610e53578063f2fde38b14610e5d578063f97700e214610ea1576102d6565b8063c48ddbcb14610d34578063c685327014610dcd578063d5ad6bf614610e01576102d6565b8063acca5b9514610bc2578063b024468214610be6578063b221095714610c4a578063b9ee1e0514610cd8578063c2f19ee814610ce2578063c42b42a014610d16576102d6565b80638aa3ec6f1161013b5780638aa3ec6f14610a555780638acfaca914610a995780638da5cb5b14610ab757806394144c6b14610aeb5780639417783f14610b0957806395e5f9ee14610ba2576102d6565b806372f33ea9146108c3578063738bbea8146108e15780637f2be9fc146109015780637f4296d7146109c3578063876f5c7e14610a07578063884a444814610a27576102d6565b80634e5d08e0116102415780636a74f107116101fa5780636cc25db7116101d45780636cc25db7146108235780636dfb038614610857578063715018a614610885578063719ce73e1461088f576102d6565b80636a74f107146107ab5780636be51c4f146107cb5780636bea5344146107ff576102d6565b80634e5d08e0146105b3578063500db70d146105f7578063605e25ac1461062b57806362c77a611461066f57806366968221146106ce578063671137c414610747576102d6565b806330fcdf411161029357806330fcdf411461041657806342d092091461045a57806347bed998146104b95780634aba4f6b146104fb5780634c169f4f1461051b5780634d7f3db014610525576102d6565b806301b48e34146102db57806301ffc9a71461031d5780630d847fc414610380578063111070e4146103b45780632a7ad609146103d45780632c8fe73d146103f8575b600080fd5b610307600480360360208110156102f157600080fd5b8101908080359060200190929190505050610fed565b6040518082815260200191505060405180910390f35b6103686004803603602081101561033357600080fd5b8101908080357bffffffffffffffffffffffffffffffffffffffffffffffffffffffff19169060200190929190505050611007565b60405180821515815260200191505060405180910390f35b6103886110a7565b604051808273ffffffffffffffffffffffffffffffffffffffff16815260200191505060405180910390f35b6103bc6110cd565b60405180821515815260200191505060405180910390f35b6103dc6110f3565b604051808263ffffffff16815260200191505060405180910390f35b610400611110565b6040518082815260200191505060405180910390f35b6104586004803603602081101561042c57600080fd5b81019080803573ffffffffffffffffffffffffffffffffffffffff16906020019092919050505061111f565b005b610462611319565b6040518080602001828103825283818151815260200191508051906020019060200280838360005b838110156104a557808201518184015260208101905061048a565b505050509050019250505060405180910390f35b6104e5600480360360208110156104cf57600080fd5b810190808035906020019092919050505061132a565b6040518082815260200191505060405180910390f35b61050361133c565b60405180821515815260200191505060405180910390f35b61052361140c565b005b6105b16004803603608081101561053b57600080fd5b81019080803573ffffffffffffffffffffffffffffffffffffffff16906020019092919080359060200190929190803573ffffffffffffffffffffffffffffffffffffffff169060200190929190803573ffffffffffffffffffffffffffffffffffffffff1690602001909291905050506115ab565b005b6105f5600480360360208110156105c957600080fd5b81019080803573ffffffffffffffffffffffffffffffffffffffff1690602001909291905050506117fb565b005b6105ff61195f565b604051808273ffffffffffffffffffffffffffffffffffffffff16815260200191505060405180910390f35b61066d6004803603602081101561064157600080fd5b81019080803573ffffffffffffffffffffffffffffffffffffffff169060200190929190505050611985565b005b610677611ba1565b6040518080602001828103825283818151815260200191508051906020019060200280838360005b838110156106ba57808201518184015260208101905061069f565b505050509050019250505060405180910390f35b610745600480360360208110156106e457600080fd5b810190808035906020019064010000000081111561070157600080fd5b82018360208201111561071357600080fd5b8035906020019184602083028401116401000000008311171561073557600080fd5b9091929391929390505050611bb2565b005b6107a96004803603604081101561075d57600080fd5b81019080803573ffffffffffffffffffffffffffffffffffffffff169060200190929190803573ffffffffffffffffffffffffffffffffffffffff169060200190929190505050611d5b565b005b6107b3611e35565b60405180821515815260200191505060405180910390f35b6107d3611e54565b604051808273ffffffffffffffffffffffffffffffffffffffff16815260200191505060405180910390f35b610807611e7a565b604051808263ffffffff16815260200191505060405180910390f35b61082b611e97565b604051808273ffffffffffffffffffffffffffffffffffffffff16815260200191505060405180910390f35b6108836004803603602081101561086d57600080fd5b8101908080359060200190929190505050611ebd565b005b61088d611f80565b005b6108976120f0565b604051808273ffffffffffffffffffffffffffffffffffffffff16815260200191505060405180910390f35b6108cb612116565b6040518082815260200191505060405180910390f35b6108e961211c565b60405180821515815260200191505060405180910390f35b6109c1600480360360e081101561091757600080fd5b810190808035906020019092919080359060200190929190803573ffffffffffffffffffffffffffffffffffffffff169060200190929190803573ffffffffffffffffffffffffffffffffffffffff169060200190929190803573ffffffffffffffffffffffffffffffffffffffff169060200190929190803573ffffffffffffffffffffffffffffffffffffffff1690602001909291908035906020019092919050505061219f565b005b610a05600480360360208110156109d957600080fd5b81019080803573ffffffffffffffffffffffffffffffffffffffff1690602001909291905050506122bf565b005b610a0f61245b565b60405180821515815260200191505060405180910390f35b610a5360048036036020811015610a3d57600080fd5b810190808035906020019092919050505061247b565b005b610a9760048036036020811015610a6b57600080fd5b81019080803573ffffffffffffffffffffffffffffffffffffffff16906020019092919050505061253e565b005b610aa1612738565b6040518082815260200191505060405180910390f35b610abf612742565b604051808273ffffffffffffffffffffffffffffffffffffffff16815260200191505060405180910390f35b610af361276c565b6040518082815260200191505060405180910390f35b610b4b60048036036020811015610b1f57600080fd5b81019080803573ffffffffffffffffffffffffffffffffffffffff169060200190929190505050612772565b6040518080602001828103825283818151815260200191508051906020019060200280838360005b83811015610b8e578082015181840152602081019050610b73565b505050509050019250505060405180910390f35b610baa612809565b60405180821515815260200191505060405180910390f35b610bca612818565b604051808263ffffffff16815260200191505060405180910390f35b610c4860048036036040811015610bfc57600080fd5b81019080803573ffffffffffffffffffffffffffffffffffffffff169060200190929190803573ffffffffffffffffffffffffffffffffffffffff16906020019092919050505061282e565b005b610cd660048036036080811015610c6057600080fd5b81019080803573ffffffffffffffffffffffffffffffffffffffff169060200190929190803573ffffffffffffffffffffffffffffffffffffffff16906020019092919080359060200190929190803573ffffffffffffffffffffffffffffffffffffffff169060200190929190505050612942565b005b610ce0612c17565b005b610cea613068565b604051808273ffffffffffffffffffffffffffffffffffffffff16815260200191505060405180910390f35b610d1e61308e565b6040518082815260200191505060405180910390f35b610dcb60048036036040811015610d4a57600080fd5b81019080803573ffffffffffffffffffffffffffffffffffffffff16906020019092919080359060200190640100000000811115610d8757600080fd5b820183602082011115610d9957600080fd5b80359060200191846020830284011164010000000083111715610dbb57600080fd5b9091929391929390505050613138565b005b610dff60048036036020811015610de357600080fd5b81019080803563ffffffff169060200190929190505050613515565b005b610e096135d8565b6040518082815260200191505060405180910390f35b610e276135e7565b604051808273ffffffffffffffffffffffffffffffffffffffff16815260200191505060405180910390f35b610e5b61360d565b005b610e9f60048036036020811015610e7357600080fd5b81019080803573ffffffffffffffffffffffffffffffffffffffff169060200190929190505050613a80565b005b610feb600480360360e0811015610eb757600080fd5b810190808035906020019092919080359060200190929190803573ffffffffffffffffffffffffffffffffffffffff169060200190929190803573ffffffffffffffffffffffffffffffffffffffff169060200190929190803573ffffffffffffffffffffffffffffffffffffffff169060200190929190803573ffffffffffffffffffffffffffffffffffffffff16906020019092919080359060200190640100000000811115610f6857600080fd5b820183602082011115610f7a57600080fd5b80359060200191846020830284011164010000000083111715610f9c57600080fd5b919080806020026020016040519081016040528093929190818152602001838360200280828437600081840152601f19601f820116905080830192505050505050509192919290505050613c75565b005b6000611000610ffa61432e565b83614375565b9050919050565b60006301ffc9a760e01b7bffffffffffffffffffffffffffffffffffffffffffffffffffffffff1916827bffffffffffffffffffffffffffffffffffffffffffffffffffffffff191614806110a0575063ff5e34e760e01b7bffffffffffffffffffffffffffffffffffffffffffffffffffffffff1916827bffffffffffffffffffffffffffffffffffffffffffffffffffffffff1916145b9050919050565b607360009054906101000a900473ffffffffffffffffffffffffffffffffffffffff1681565b600080606a60000160009054906101000a900463ffffffff1663ffffffff161415905090565b6000606a60000160009054906101000a900463ffffffff16905090565b600061111a6143b4565b905090565b6111276143d2565b73ffffffffffffffffffffffffffffffffffffffff16611145612742565b73ffffffffffffffffffffffffffffffffffffffff16146111ce576040517f08c379a00000000000000000000000000000000000000000000000000000000081526004018080602001828103825260208152602001807f4f776e61626c653a2063616c6c6572206973206e6f7420746865206f776e657281525060200191505060405180910390fd5b6111d66143da565b8073ffffffffffffffffffffffffffffffffffffffff16600073ffffffffffffffffffffffffffffffffffffffff16148061123d575061123c634cdf9c3e60e01b8273ffffffffffffffffffffffffffffffffffffffff1661448290919063ffffffff16565b5b611292576040517f08c379a00000000000000000000000000000000000000000000000000000000081526004018080602001828103825260318152602001806170f66031913960400191505060405180910390fd5b80607360006101000a81548173ffffffffffffffffffffffffffffffffffffffff021916908373ffffffffffffffffffffffffffffffffffffffff1602179055508073ffffffffffffffffffffffffffffffffffffffff167fc4feff61630891ea2cb42a54fbe3ff2e65422f2ed17323ac6b65f4521112e87e60405160405180910390a250565b606061132560706144a7565b905090565b600061133582614692565b9050919050565b6000606960009054906101000a900473ffffffffffffffffffffffffffffffffffffffff1673ffffffffffffffffffffffffffffffffffffffff16633a19b9bc606a60000160009054906101000a900463ffffffff166040518263ffffffff1660e01b8152600401808263ffffffff16815260200191505060206040518083038186803b1580156113cc57600080fd5b505afa1580156113e0573d6000803e3d6000fd5b505050506040513d60208110156113f657600080fd5b8101908080519060200190929190505050905090565b61141461211c565b611469576040517f08c379a00000000000000000000000000000000000000000000000000000000081526004018080602001828103825260268152602001806172196026913960400191505060405180910390fd5b6000606a60000160009054906101000a900463ffffffff1690506000606a60000160049054906101000a900463ffffffff169050606a600080820160006101000a81549063ffffffff02191690556000820160046101000a81549063ffffffff02191690556000820160086101000a81549063ffffffff021916905550507fee6702c46c5618e6fc7e625c71f4c85df9c91d456cb16a3aea71ab83b1fee00560405160405180910390a18163ffffffff16606660009054906101000a900473ffffffffffffffffffffffffffffffffffffffff1673ffffffffffffffffffffffffffffffffffffffff163373ffffffffffffffffffffffffffffffffffffffff167fd50026ee0824513af20cdf5e72d1fbfbe8fd646ee0576378e080326f1a695e5884604051808263ffffffff16815260200191505060405180910390a45050565b606660009054906101000a900473ffffffffffffffffffffffffffffffffffffffff1673ffffffffffffffffffffffffffffffffffffffff166115ec6143d2565b73ffffffffffffffffffffffffffffffffffffffff1614611658576040517f08c379a0000000000000000000000000000000000000000000000000000000008152600401808060200182810382526025815260200180616f9d6025913960400191505060405180910390fd5b606760009054906101000a900473ffffffffffffffffffffffffffffffffffffffff1673ffffffffffffffffffffffffffffffffffffffff168273ffffffffffffffffffffffffffffffffffffffff1614156116b7576116b66143da565b5b600073ffffffffffffffffffffffffffffffffffffffff16606560009054906101000a900473ffffffffffffffffffffffffffffffffffffffff1673ffffffffffffffffffffffffffffffffffffffff16146117f557606560009054906101000a900473ffffffffffffffffffffffffffffffffffffffff1673ffffffffffffffffffffffffffffffffffffffff16634d7f3db0858585856040518563ffffffff1660e01b8152600401808573ffffffffffffffffffffffffffffffffffffffff1681526020018481526020018373ffffffffffffffffffffffffffffffffffffffff1681526020018273ffffffffffffffffffffffffffffffffffffffff168152602001945050505050600060405180830381600087803b1580156117dc57600080fd5b505af11580156117f0573d6000803e3d6000fd5b505050505b50505050565b611803612742565b73ffffffffffffffffffffffffffffffffffffffff166118216143d2565b73ffffffffffffffffffffffffffffffffffffffff1614806118975750607460009054906101000a900473ffffffffffffffffffffffffffffffffffffffff1673ffffffffffffffffffffffffffffffffffffffff1661187f6143d2565b73ffffffffffffffffffffffffffffffffffffffff16145b806118f65750607360009054906101000a900473ffffffffffffffffffffffffffffffffffffffff1673ffffffffffffffffffffffffffffffffffffffff166118de6143d2565b73ffffffffffffffffffffffffffffffffffffffff16145b61194b576040517f08c379a000000000000000000000000000000000000000000000000000000000815260040180806020018281038252602c815260200180616f13602c913960400191505060405180910390fd5b6119536143da565b61195c816146f1565b50565b606860009054906101000a900473ffffffffffffffffffffffffffffffffffffffff1681565b61198d6143d2565b73ffffffffffffffffffffffffffffffffffffffff166119ab612742565b73ffffffffffffffffffffffffffffffffffffffff1614611a34576040517f08c379a00000000000000000000000000000000000000000000000000000000081526004018080602001828103825260208152602001807f4f776e61626c653a2063616c6c6572206973206e6f7420746865206f776e657281525060200191505060405180910390fd5b611a3c6143da565b8073ffffffffffffffffffffffffffffffffffffffff16600073ffffffffffffffffffffffffffffffffffffffff161480611aa35750611aa263ff5e34e760e01b8273ffffffffffffffffffffffffffffffffffffffff1661448290919063ffffffff16565b5b611af8576040517f08c379a000000000000000000000000000000000000000000000000000000000815260040180806020018281038252602c815260200180616e96602c913960400191505060405180910390fd5b80606560006101000a81548173ffffffffffffffffffffffffffffffffffffffff021916908373ffffffffffffffffffffffffffffffffffffffff160217905550606560009054906101000a900473ffffffffffffffffffffffffffffffffffffffff1673ffffffffffffffffffffffffffffffffffffffff167f9fc437aa70ad4ee5f33f6772bf338eed41e21b95435820817ab8b4df161ce4dd60405160405180910390a250565b6060611bad606e6144a7565b905090565b611bba612742565b73ffffffffffffffffffffffffffffffffffffffff16611bd86143d2565b73ffffffffffffffffffffffffffffffffffffffff161480611c4e5750607460009054906101000a900473ffffffffffffffffffffffffffffffffffffffff1673ffffffffffffffffffffffffffffffffffffffff16611c366143d2565b73ffffffffffffffffffffffffffffffffffffffff16145b80611cad5750607360009054906101000a900473ffffffffffffffffffffffffffffffffffffffff1673ffffffffffffffffffffffffffffffffffffffff16611c956143d2565b73ffffffffffffffffffffffffffffffffffffffff16145b611d02576040517f08c379a000000000000000000000000000000000000000000000000000000000815260040180806020018281038252602c815260200180616f13602c913960400191505060405180910390fd5b611d0a6143da565b60005b82829050811015611d5657611d49838383818110611d2757fe5b9050602002013573ffffffffffffffffffffffffffffffffffffffff166146f1565b8080600101915050611d0d565b505050565b611d636143d2565b73ffffffffffffffffffffffffffffffffffffffff16611d81612742565b73ffffffffffffffffffffffffffffffffffffffff1614611e0a576040517f08c379a00000000000000000000000000000000000000000000000000000000081526004018080602001828103825260208152602001807f4f776e61626c653a2063616c6c6572206973206e6f7420746865206f776e657281525060200191505060405180910390fd5b611e126143da565b611e2881836070614a889092919063ffffffff16565b611e3182614dc0565b5050565b6000611e3f6110cd565b8015611e4f5750611e4e61133c565b5b905090565b606560009054906101000a900473ffffffffffffffffffffffffffffffffffffffff1681565b6000606a60000160049054906101000a900463ffffffff16905090565b606760009054906101000a900473ffffffffffffffffffffffffffffffffffffffff1681565b611ec56143d2565b73ffffffffffffffffffffffffffffffffffffffff16611ee3612742565b73ffffffffffffffffffffffffffffffffffffffff1614611f6c576040517f08c379a00000000000000000000000000000000000000000000000000000000081526004018080602001828103825260208152602001807f4f776e61626c653a2063616c6c6572206973206e6f7420746865206f776e657281525060200191505060405180910390fd5b611f746143da565b611f7d81614e51565b50565b611f886143d2565b73ffffffffffffffffffffffffffffffffffffffff16611fa6612742565b73ffffffffffffffffffffffffffffffffffffffff161461202f576040517f08c379a00000000000000000000000000000000000000000000000000000000081526004018080602001828103825260208152602001807f4f776e61626c653a2063616c6c6572206973206e6f7420746865206f776e657281525060200191505060405180910390fd5b600073ffffffffffffffffffffffffffffffffffffffff16603360009054906101000a900473ffffffffffffffffffffffffffffffffffffffff1673ffffffffffffffffffffffffffffffffffffffff167f8be0079c531659141344cd1fd0a4f28419497f9722a3daafe3b4186f6b6457e060405160405180910390a36000603360006101000a81548173ffffffffffffffffffffffffffffffffffffffff021916908373ffffffffffffffffffffffffffffffffffffffff160217905550565b606660009054906101000a900473ffffffffffffffffffffffffffffffffffffffff1681565b606d5481565b600080606a60000160089054906101000a900463ffffffff1663ffffffff16141561214a576000905061219c565b612190606a60000160089054906101000a900463ffffffff1663ffffffff16606b60009054906101000a900463ffffffff1663ffffffff16614f0890919063ffffffff16565b612198614f90565b1190505b90565b600060019054906101000a900460ff16806121be57506121bd614f98565b5b806121d4575060008054906101000a900460ff16155b612229576040517f08c379a000000000000000000000000000000000000000000000000000000000815260040180806020018281038252602e81526020018061707c602e913960400191505060405180910390fd5b60008060019054906101000a900460ff161590508015612279576001600060016101000a81548160ff02191690831515021790555060016000806101000a81548160ff0219169083151502179055505b606061228a89898989898987613c75565b61229383614e51565b5080156122b55760008060016101000a81548160ff0219169083151502179055505b5050505050505050565b6122c76143d2565b73ffffffffffffffffffffffffffffffffffffffff166122e5612742565b73ffffffffffffffffffffffffffffffffffffffff161461236e576040517f08c379a00000000000000000000000000000000000000000000000000000000081526004018080602001828103825260208152602001807f4f776e61626c653a2063616c6c6572206973206e6f7420746865206f776e657281525060200191505060405180910390fd5b6123766143da565b61237e6110cd565b156123d4576040517f08c379a00000000000000000000000000000000000000000000000000000000081526004018080602001828103825260238152602001806171f66023913960400191505060405180910390fd5b80606960006101000a81548173ffffffffffffffffffffffffffffffffffffffff021916908373ffffffffffffffffffffffffffffffffffffffff1602179055508073ffffffffffffffffffffffffffffffffffffffff167ff935763cc7c57ee8ed6318ed71e756cca0731294c9f46ff5b386f36d6ff1417a60405160405180910390a250565b6000612465614fa9565b801561247657506124746110cd565b155b905090565b6124836143d2565b73ffffffffffffffffffffffffffffffffffffffff166124a1612742565b73ffffffffffffffffffffffffffffffffffffffff161461252a576040517f08c379a00000000000000000000000000000000000000000000000000000000081526004018080602001828103825260208152602001807f4f776e61626c653a2063616c6c6572206973206e6f7420746865206f776e657281525060200191505060405180910390fd5b6125326143da565b61253b81614fc2565b50565b6125466143d2565b73ffffffffffffffffffffffffffffffffffffffff16612564612742565b73ffffffffffffffffffffffffffffffffffffffff16146125ed576040517f08c379a00000000000000000000000000000000000000000000000000000000081526004018080602001828103825260208152602001807f4f776e61626c653a2063616c6c6572206973206e6f7420746865206f776e657281525060200191505060405180910390fd5b6125f56143da565b8073ffffffffffffffffffffffffffffffffffffffff16600073ffffffffffffffffffffffffffffffffffffffff16148061265c575061265b63575072c660e01b8273ffffffffffffffffffffffffffffffffffffffff1661448290919063ffffffff16565b5b6126b1576040517f08c379a000000000000000000000000000000000000000000000000000000000815260040180806020018281038252603381526020018061719d6033913960400191505060405180910390fd5b80607460006101000a81548173ffffffffffffffffffffffffffffffffffffffff021916908373ffffffffffffffffffffffffffffffffffffffff1602179055508073ffffffffffffffffffffffffffffffffffffffff167fda05d50a3a1ec0ffab059f1d457ae59f68ccfb3ffbb4dad283c516f9103d584b60405160405180910390a250565b6000607554905090565b6000603360009054906101000a900473ffffffffffffffffffffffffffffffffffffffff16905090565b606c5481565b6060607260008373ffffffffffffffffffffffffffffffffffffffff1673ffffffffffffffffffffffffffffffffffffffff1681526020019081526020016000208054806020026020016040519081016040528092919081815260200182805480156127fd57602002820191906000526020600020905b8154815260200190600101908083116127e9575b50505050509050919050565b6000612813614fa9565b905090565b606b60009054906101000a900463ffffffff1681565b6128366143d2565b73ffffffffffffffffffffffffffffffffffffffff16612854612742565b73ffffffffffffffffffffffffffffffffffffffff16146128dd576040517f08c379a00000000000000000000000000000000000000000000000000000000081526004018080602001828103825260208152602001807f4f776e61626c653a2063616c6c6572206973206e6f7420746865206f776e657281525060200191505060405180910390fd5b6128e56143da565b6128fb8183606e614a889092919063ffffffff16565b8173ffffffffffffffffffffffffffffffffffffffff167f58982464497acdab11ad29d39907e076b0d3b8daf1d9b734174c7c3a2a0e8c7460405160405180910390a25050565b606660009054906101000a900473ffffffffffffffffffffffffffffffffffffffff1673ffffffffffffffffffffffffffffffffffffffff166129836143d2565b73ffffffffffffffffffffffffffffffffffffffff16146129ef576040517f08c379a0000000000000000000000000000000000000000000000000000000008152600401808060200182810382526025815260200180616f9d6025913960400191505060405180910390fd5b8273ffffffffffffffffffffffffffffffffffffffff168473ffffffffffffffffffffffffffffffffffffffff161415612a74576040517f08c379a0000000000000000000000000000000000000000000000000000000008152600401808060200182810382526026815260200180616fc26026913960400191505060405180910390fd5b606760009054906101000a900473ffffffffffffffffffffffffffffffffffffffff1673ffffffffffffffffffffffffffffffffffffffff168173ffffffffffffffffffffffffffffffffffffffff161415612ad357612ad26143da565b5b600073ffffffffffffffffffffffffffffffffffffffff16606560009054906101000a900473ffffffffffffffffffffffffffffffffffffffff1673ffffffffffffffffffffffffffffffffffffffff1614612c1157606560009054906101000a900473ffffffffffffffffffffffffffffffffffffffff1673ffffffffffffffffffffffffffffffffffffffff1663b2210957858585856040518563ffffffff1660e01b8152600401808573ffffffffffffffffffffffffffffffffffffffff1681526020018473ffffffffffffffffffffffffffffffffffffffff1681526020018381526020018273ffffffffffffffffffffffffffffffffffffffff168152602001945050505050600060405180830381600087803b158015612bf857600080fd5b505af1158015612c0c573d6000803e3d6000fd5b505050505b50505050565b612c1f614fa9565b612c74576040517f08c379a000000000000000000000000000000000000000000000000000000000815260040180806020018281038252602b815260200180616ec2602b913960400191505060405180910390fd5b612c7c6110cd565b15612cd2576040517f08c379a000000000000000000000000000000000000000000000000000000000815260040180806020018281038252602b8152602001806170aa602b913960400191505060405180910390fd5b600080606960009054906101000a900473ffffffffffffffffffffffffffffffffffffffff1673ffffffffffffffffffffffffffffffffffffffff16630d37b5376040518163ffffffff1660e01b8152600401604080518083038186803b158015612d3c57600080fd5b505afa158015612d50573d6000803e3d6000fd5b505050506040513d6040811015612d6657600080fd5b81019080805190602001909291908051906020019092919050505091509150600073ffffffffffffffffffffffffffffffffffffffff168273ffffffffffffffffffffffffffffffffffffffff1614158015612dc25750600081115b15612e97578173ffffffffffffffffffffffffffffffffffffffff1663095ea7b3606960009054906101000a900473ffffffffffffffffffffffffffffffffffffffff16836040518363ffffffff1660e01b8152600401808373ffffffffffffffffffffffffffffffffffffffff16815260200182815260200192505050602060405180830381600087803b158015612e5a57600080fd5b505af1158015612e6e573d6000803e3d6000fd5b505050506040513d6020811015612e8457600080fd5b8101908080519060200190929190505050505b600080606960009054906101000a900473ffffffffffffffffffffffffffffffffffffffff1673ffffffffffffffffffffffffffffffffffffffff16638678a7b26040518163ffffffff1660e01b81526004016040805180830381600087803b158015612f0357600080fd5b505af1158015612f17573d6000803e3d6000fd5b505050506040513d6040811015612f2d57600080fd5b8101908080519060200190929190805190602001909291905050509150915081606a60000160006101000a81548163ffffffff021916908363ffffffff16021790555080606a60000160046101000a81548163ffffffff021916908363ffffffff160217905550612fa4612f9f614f90565b61505e565b606a60000160086101000a81548163ffffffff021916908363ffffffff1602179055508163ffffffff16606660009054906101000a900473ffffffffffffffffffffffffffffffffffffffff1673ffffffffffffffffffffffffffffffffffffffff1661300f6143d2565b73ffffffffffffffffffffffffffffffffffffffff167f4d31e658dcf617bb3a3c8cf7c6dddb33f7030ac588e271631ecdb5d76c2e91ef84604051808263ffffffff16815260200191505060405180910390a450505050565b607460009054906101000a900473ffffffffffffffffffffffffffffffffffffffff1681565b6000606660009054906101000a900473ffffffffffffffffffffffffffffffffffffffff1673ffffffffffffffffffffffffffffffffffffffff1663630665b46040518163ffffffff1660e01b815260040160206040518083038186803b1580156130f857600080fd5b505afa15801561310c573d6000803e3d6000fd5b505050506040513d602081101561312257600080fd5b8101908080519060200190929190505050905090565b613140612742565b73ffffffffffffffffffffffffffffffffffffffff1661315e6143d2565b73ffffffffffffffffffffffffffffffffffffffff1614806131d45750607460009054906101000a900473ffffffffffffffffffffffffffffffffffffffff1673ffffffffffffffffffffffffffffffffffffffff166131bc6143d2565b73ffffffffffffffffffffffffffffffffffffffff16145b806132335750607360009054906101000a900473ffffffffffffffffffffffffffffffffffffffff1673ffffffffffffffffffffffffffffffffffffffff1661321b6143d2565b73ffffffffffffffffffffffffffffffffffffffff16145b613288576040517f08c379a000000000000000000000000000000000000000000000000000000000815260040180806020018281038252602c815260200180616f13602c913960400191505060405180910390fd5b6132906143da565b606660009054906101000a900473ffffffffffffffffffffffffffffffffffffffff1673ffffffffffffffffffffffffffffffffffffffff16636a3fd4f9846040518263ffffffff1660e01b8152600401808273ffffffffffffffffffffffffffffffffffffffff16815260200191505060206040518083038186803b15801561331957600080fd5b505afa15801561332d573d6000803e3d6000fd5b505050506040513d602081101561334357600080fd5b81019080805190602001909291905050506133a9576040517f08c379a000000000000000000000000000000000000000000000000000000000815260040180806020018281038252602b815260200180617127602b913960400191505060405180910390fd5b6133d96380ac58cd60e01b8473ffffffffffffffffffffffffffffffffffffffff1661448290919063ffffffff16565b61342e576040517f08c379a0000000000000000000000000000000000000000000000000000000008152600401808060200182810382526024815260200180616e726024913960400191505060405180910390fd5b6134428360706150c590919063ffffffff16565b61345b5761345a8360706151d390919063ffffffff16565b5b60005b82829050811015613492576134858484848481811061347957fe5b90506020020135615529565b808060010191505061345e565b508273ffffffffffffffffffffffffffffffffffffffff167f51541dc4b4c08a16085809cccdc4cc77d8000b60fbb00142e57f236d84298675838360405180806020018281038252848482818152602001925060200280828437600081840152601f19601f820116905080830192505050935050505060405180910390a2505050565b61351d6143d2565b73ffffffffffffffffffffffffffffffffffffffff1661353b612742565b73ffffffffffffffffffffffffffffffffffffffff16146135c4576040517f08c379a00000000000000000000000000000000000000000000000000000000081526004018080602001828103825260208152602001807f4f776e61626c653a2063616c6c6572206973206e6f7420746865206f776e657281525060200191505060405180910390fd5b6135cc6143da565b6135d5816157cc565b50565b60006135e261432e565b905090565b606960009054906101000a900473ffffffffffffffffffffffffffffffffffffffff1681565b6136156110cd565b61366a576040517f08c379a000000000000000000000000000000000000000000000000000000000815260040180806020018281038252602781526020018061726b6027913960400191505060405180910390fd5b61367261133c565b6136c7576040517f08c379a00000000000000000000000000000000000000000000000000000000081526004018080602001828103825260268152602001806170336026913960400191505060405180910390fd5b6000606960009054906101000a900473ffffffffffffffffffffffffffffffffffffffff1673ffffffffffffffffffffffffffffffffffffffff16639d2a5f98606a60000160009054906101000a900463ffffffff166040518263ffffffff1660e01b8152600401808263ffffffff168152602001915050602060405180830381600087803b15801561375957600080fd5b505af115801561376d573d6000803e3d6000fd5b505050506040513d602081101561378357600080fd5b81019080805190602001909291905050509050606a600080820160006101000a81549063ffffffff02191690556000820160046101000a81549063ffffffff02191690556000820160086101000a81549063ffffffff02191690555050600073ffffffffffffffffffffffffffffffffffffffff16607360009054906101000a900473ffffffffffffffffffffffffffffffffffffffff1673ffffffffffffffffffffffffffffffffffffffff16146138ce57607360009054906101000a900473ffffffffffffffffffffffffffffffffffffffff1673ffffffffffffffffffffffffffffffffffffffff16634cdf9c3e82606d546040518363ffffffff1660e01b81526004018083815260200182815260200192505050600060405180830381600087803b1580156138b557600080fd5b505af11580156138c9573d6000803e3d6000fd5b505050505b6138d78161589e565b600073ffffffffffffffffffffffffffffffffffffffff16607460009054906101000a900473ffffffffffffffffffffffffffffffffffffffff1673ffffffffffffffffffffffffffffffffffffffff16146139c557607460009054906101000a900473ffffffffffffffffffffffffffffffffffffffff1673ffffffffffffffffffffffffffffffffffffffff1663575072c682606d546040518363ffffffff1660e01b81526004018083815260200182815260200192505050600060405180830381600087803b1580156139ac57600080fd5b505af11580156139c0573d6000803e3d6000fd5b505050505b6139d56139d0614f90565b614692565b606d819055506139e36143d2565b73ffffffffffffffffffffffffffffffffffffffff167f9c4163ece98173eab9a496c4db8bf3e2c8edcc5d2854377880597ccb858b7a9d826040518082815260200191505060405180910390a2606d54613a3b6143d2565b73ffffffffffffffffffffffffffffffffffffffff167fc61852c20f0b03b31d782f3022f2bf20322ac17ce66c5349fb6e24740cdd645660405160405180910390a350565b613a886143d2565b73ffffffffffffffffffffffffffffffffffffffff16613aa6612742565b73ffffffffffffffffffffffffffffffffffffffff1614613b2f576040517f08c379a00000000000000000000000000000000000000000000000000000000081526004018080602001828103825260208152602001807f4f776e61626c653a2063616c6c6572206973206e6f7420746865206f776e657281525060200191505060405180910390fd5b600073ffffffffffffffffffffffffffffffffffffffff168173ffffffffffffffffffffffffffffffffffffffff161415613bb5576040517f08c379a0000000000000000000000000000000000000000000000000000000008152600401808060200182810382526026815260200180616eed6026913960400191505060405180910390fd5b8073ffffffffffffffffffffffffffffffffffffffff16603360009054906101000a900473ffffffffffffffffffffffffffffffffffffffff1673ffffffffffffffffffffffffffffffffffffffff167f8be0079c531659141344cd1fd0a4f28419497f9722a3daafe3b4186f6b6457e060405160405180910390a380603360006101000a81548173ffffffffffffffffffffffffffffffffffffffff021916908373ffffffffffffffffffffffffffffffffffffffff16021790555050565b600060019054906101000a900460ff1680613c945750613c93614f98565b5b80613caa575060008054906101000a900460ff16155b613cff576040517f08c379a000000000000000000000000000000000000000000000000000000000815260040180806020018281038252602e81526020018061707c602e913960400191505060405180910390fd5b60008060019054906101000a900460ff161590508015613d4f576001600060016101000a81548160ff02191690831515021790555060016000806101000a81548160ff0219169083151502179055505b600073ffffffffffffffffffffffffffffffffffffffff168673ffffffffffffffffffffffffffffffffffffffff161415613dd5576040517f08c379a0000000000000000000000000000000000000000000000000000000008152600401808060200182810382526029815260200180616fe86029913960400191505060405180910390fd5b600073ffffffffffffffffffffffffffffffffffffffff168573ffffffffffffffffffffffffffffffffffffffff161415613e5b576040517f08c379a00000000000000000000000000000000000000000000000000000000081526004018080602001828103825260258152602001806171786025913960400191505060405180910390fd5b600073ffffffffffffffffffffffffffffffffffffffff168473ffffffffffffffffffffffffffffffffffffffff161415613ee1576040517f08c379a000000000000000000000000000000000000000000000000000000000815260040180806020018281038252602a815260200180616f3f602a913960400191505060405180910390fd5b600073ffffffffffffffffffffffffffffffffffffffff168373ffffffffffffffffffffffffffffffffffffffff161415613f67576040517f08c379a00000000000000000000000000000000000000000000000000000000081526004018080602001828103825260228152602001806170116022913960400191505060405180910390fd5b85606660006101000a81548173ffffffffffffffffffffffffffffffffffffffff021916908373ffffffffffffffffffffffffffffffffffffffff16021790555084606760006101000a81548173ffffffffffffffffffffffffffffffffffffffff021916908373ffffffffffffffffffffffffffffffffffffffff16021790555082606960006101000a81548173ffffffffffffffffffffffffffffffffffffffff021916908373ffffffffffffffffffffffffffffffffffffffff16021790555083606860006101000a81548173ffffffffffffffffffffffffffffffffffffffff021916908373ffffffffffffffffffffffffffffffffffffffff16021790555061407487614fc2565b61407c616028565b731820a4b7618bde71dce8cdc73aab6c95905fad2473ffffffffffffffffffffffffffffffffffffffff166329965a1d307fb281fc8c12954d22544db45de3159a39272895b169a852b314f9cc762e44c53b60001b306040518463ffffffff1660e01b8152600401808473ffffffffffffffffffffffffffffffffffffffff1681526020018381526020018273ffffffffffffffffffffffffffffffffffffffff1681526020019350505050600060405180830381600087803b15801561414257600080fd5b505af1158015614156573d6000803e3d6000fd5b50505050614164606e616136565b60005b82518110156141995761418c83828151811061417f57fe5b60200260200101516146f1565b8080600101915050614167565b5086606c8190555087606d819055506141b26070616136565b6141bd6107086157cc565b8573ffffffffffffffffffffffffffffffffffffffff167ff9632d212436344a25150ff0c161dabf412aade556621c2dea146ca63ff643f5898988888888604051808781526020018681526020018573ffffffffffffffffffffffffffffffffffffffff1681526020018473ffffffffffffffffffffffffffffffffffffffff1681526020018373ffffffffffffffffffffffffffffffffffffffff16815260200180602001828103825283818151815260200191508051906020019060200280838360005b8381101561429e578082015181840152602081019050614283565b5050505090500197505050505050505060405180910390a2606d546142c16143d2565b73ffffffffffffffffffffffffffffffffffffffff167fc61852c20f0b03b31d782f3022f2bf20322ac17ce66c5349fb6e24740cdd645660405160405180910390a380156143245760008060016101000a81548160ff0219169083151502179055505b5050505050505050565b6000806143396143b4565b90506000614345614f90565b90508181111561435a57600092505050614372565b61436d818361623590919063ffffffff16565b925050505b90565b60008061439384670de0b6b3a76400006162b890919063ffffffff16565b90506143a8838261633e90919063ffffffff16565b90508091505092915050565b60006143cd606c54606d54614f0890919063ffffffff16565b905090565b600033905090565b60006143e4616388565b90506000606a60000160049054906101000a900463ffffffff1663ffffffff16148061442a5750606a60000160049054906101000a900463ffffffff1663ffffffff1681105b61447f576040517f08c379a00000000000000000000000000000000000000000000000000000000081526004018080602001828103825260238152602001806171f66023913960400191505060405180910390fd5b50565b600061448d83616390565b801561449f575061449e83836163c4565b5b905092915050565b606080826000015467ffffffffffffffff811180156144c557600080fd5b506040519080825280602002602001820160405280156144f45781602001602082028036833780820191505090505b509050600080846001016000600173ffffffffffffffffffffffffffffffffffffffff1673ffffffffffffffffffffffffffffffffffffffff16815260200190815260200160002060009054906101000a900473ffffffffffffffffffffffffffffffffffffffff1690505b600073ffffffffffffffffffffffffffffffffffffffff168173ffffffffffffffffffffffffffffffffffffffff16141580156145ca5750600173ffffffffffffffffffffffffffffffffffffffff168173ffffffffffffffffffffffffffffffffffffffff1614155b1561468757808383815181106145dc57fe5b602002602001019073ffffffffffffffffffffffffffffffffffffffff16908173ffffffffffffffffffffffffffffffffffffffff16815250508460010160008273ffffffffffffffffffffffffffffffffffffffff1673ffffffffffffffffffffffffffffffffffffffff16815260200190815260200160002060009054906101000a900473ffffffffffffffffffffffffffffffffffffffff1690508180600101925050614560565b829350505050919050565b6000806146be606c546146b0606d548661623590919063ffffffff16565b6163eb90919063ffffffff16565b90506146e96146d8606c548361647490919063ffffffff16565b606d54614f0890919063ffffffff16565b915050919050565b6147108173ffffffffffffffffffffffffffffffffffffffff166164fa565b614782576040517f08c379a00000000000000000000000000000000000000000000000000000000081526004018080602001828103825260208152602001807f506572696f6469635072697a6553747261746567792f65726332302d6e756c6c81525060200191505060405180910390fd5b606660009054906101000a900473ffffffffffffffffffffffffffffffffffffffff1673ffffffffffffffffffffffffffffffffffffffff16636a3fd4f9826040518263ffffffff1660e01b8152600401808273ffffffffffffffffffffffffffffffffffffffff16815260200191505060206040518083038186803b15801561480b57600080fd5b505afa15801561481f573d6000803e3d6000fd5b505050506040513d602081101561483557600080fd5b810190808051906020019092919050505061489b576040517f08c379a000000000000000000000000000000000000000000000000000000000815260040180806020018281038252602b815260200180617127602b913960400191505060405180910390fd5b600060608273ffffffffffffffffffffffffffffffffffffffff166040516024016040516020818303038152906040527f18160ddd000000000000000000000000000000000000000000000000000000007bffffffffffffffffffffffffffffffffffffffffffffffffffffffff19166020820180517bffffffffffffffffffffffffffffffffffffffffffffffffffffffff83818316178352505050506040518082805190602001908083835b6020831061496c5780518252602082019150602081019050602083039250614949565b6001836020036101000a038019825116818451168082178552505050505050905001915050600060405180830381855afa9150503d80600081146149cc576040519150601f19603f3d011682016040523d82523d6000602084013e6149d1565b606091505b509150915081614a2c576040517f08c379a00000000000000000000000000000000000000000000000000000000081526004018080602001828103825260238152602001806170596023913960400191505060405180910390fd5b614a4083606e6151d390919063ffffffff16565b8273ffffffffffffffffffffffffffffffffffffffff167fbcd6d991f3416e288bf59a2997b423772937b62c7ea7dd1a54af7771de1f741860405160405180910390a2505050565b600173ffffffffffffffffffffffffffffffffffffffff168173ffffffffffffffffffffffffffffffffffffffff1614158015614af25750600073ffffffffffffffffffffffffffffffffffffffff168173ffffffffffffffffffffffffffffffffffffffff1614155b614b64576040517f08c379a000000000000000000000000000000000000000000000000000000000815260040180806020018281038252600f8152602001807f496e76616c69642061646472657373000000000000000000000000000000000081525060200191505060405180910390fd5b8073ffffffffffffffffffffffffffffffffffffffff168360010160008473ffffffffffffffffffffffffffffffffffffffff1673ffffffffffffffffffffffffffffffffffffffff16815260200190815260200160002060009054906101000a900473ffffffffffffffffffffffffffffffffffffffff1673ffffffffffffffffffffffffffffffffffffffff1614614c66576040517f08c379a00000000000000000000000000000000000000000000000000000000081526004018080602001828103825260138152602001807f496e76616c69642070726576416464726573730000000000000000000000000081525060200191505060405180910390fd5b8260010160008273ffffffffffffffffffffffffffffffffffffffff1673ffffffffffffffffffffffffffffffffffffffff16815260200190815260200160002060009054906101000a900473ffffffffffffffffffffffffffffffffffffffff168360010160008473ffffffffffffffffffffffffffffffffffffffff1673ffffffffffffffffffffffffffffffffffffffff16815260200190815260200160002060006101000a81548173ffffffffffffffffffffffffffffffffffffffff021916908373ffffffffffffffffffffffffffffffffffffffff1602179055508260010160008273ffffffffffffffffffffffffffffffffffffffff1673ffffffffffffffffffffffffffffffffffffffff16815260200190815260200160002060006101000a81549073ffffffffffffffffffffffffffffffffffffffff021916905560018360000154038360000181905550505050565b607260008273ffffffffffffffffffffffffffffffffffffffff1673ffffffffffffffffffffffffffffffffffffffff1681526020019081526020016000206000614e0b9190616e33565b8073ffffffffffffffffffffffffffffffffffffffff167fcd64d9dacd230c5ccf1278ea5332b0621aa28c950fb0e61c8fbc9e2011c88a3460405160405180910390a250565b60008111614ec7576040517f08c379a000000000000000000000000000000000000000000000000000000000815260040180806020018281038252601f8152602001807f4d756c7469706c6557696e6e6572732f77696e6e6572732d6774652d6f6e650081525060200191505060405180910390fd5b806075819055507fc44c7222e8df09744ced394101df47e78dedb642d3065267bb388901de9df6d4816040518082815260200191505060405180910390a150565b600080828401905083811015614f86576040517f08c379a000000000000000000000000000000000000000000000000000000000815260040180806020018281038252601b8152602001807f536166654d6174683a206164646974696f6e206f766572666c6f77000000000081525060200191505060405180910390fd5b8091505092915050565b600042905090565b6000614fa3306164fa565b15905090565b6000614fb36143b4565b614fbb614f90565b1015905090565b6000811161501b576040517f08c379a0000000000000000000000000000000000000000000000000000000008152600401808060200182810382526034815260200180616f696034913960400191505060405180910390fd5b80606c819055507f0d379c1a7282461e725a9dc2d74e65246c77e98ae93835e26c2f1654c48ee4ec606c546040518082815260200191505060405180910390a150565b600064010000000082106150bd576040517f08c379a00000000000000000000000000000000000000000000000000000000081526004018080602001828103825260268152602001806171526026913960400191505060405180910390fd5b819050919050565b6000600173ffffffffffffffffffffffffffffffffffffffff168273ffffffffffffffffffffffffffffffffffffffff16141580156151315750600073ffffffffffffffffffffffffffffffffffffffff168273ffffffffffffffffffffffffffffffffffffffff1614155b80156151cb5750600073ffffffffffffffffffffffffffffffffffffffff168360010160008473ffffffffffffffffffffffffffffffffffffffff1673ffffffffffffffffffffffffffffffffffffffff16815260200190815260200160002060009054906101000a900473ffffffffffffffffffffffffffffffffffffffff1673ffffffffffffffffffffffffffffffffffffffff1614155b905092915050565b600173ffffffffffffffffffffffffffffffffffffffff168173ffffffffffffffffffffffffffffffffffffffff161415801561523d5750600073ffffffffffffffffffffffffffffffffffffffff168173ffffffffffffffffffffffffffffffffffffffff1614155b6152af576040517f08c379a000000000000000000000000000000000000000000000000000000000815260040180806020018281038252600f8152602001807f496e76616c69642061646472657373000000000000000000000000000000000081525060200191505060405180910390fd5b600073ffffffffffffffffffffffffffffffffffffffff168260010160008373ffffffffffffffffffffffffffffffffffffffff1673ffffffffffffffffffffffffffffffffffffffff16815260200190815260200160002060009054906101000a900473ffffffffffffffffffffffffffffffffffffffff1673ffffffffffffffffffffffffffffffffffffffff16146153b2576040517f08c379a000000000000000000000000000000000000000000000000000000000815260040180806020018281038252600d8152602001807f416c72656164792061646465640000000000000000000000000000000000000081525060200191505060405180910390fd5b816001016000600173ffffffffffffffffffffffffffffffffffffffff1673ffffffffffffffffffffffffffffffffffffffff16815260200190815260200160002060009054906101000a900473ffffffffffffffffffffffffffffffffffffffff168260010160008373ffffffffffffffffffffffffffffffffffffffff1673ffffffffffffffffffffffffffffffffffffffff16815260200190815260200160002060006101000a81548173ffffffffffffffffffffffffffffffffffffffff021916908373ffffffffffffffffffffffffffffffffffffffff16021790555080826001016000600173ffffffffffffffffffffffffffffffffffffffff1673ffffffffffffffffffffffffffffffffffffffff16815260200190815260200160002060006101000a81548173ffffffffffffffffffffffffffffffffffffffff021916908373ffffffffffffffffffffffffffffffffffffffff160217905550600182600001540182600001819055505050565b606660009054906101000a900473ffffffffffffffffffffffffffffffffffffffff1673ffffffffffffffffffffffffffffffffffffffff168273ffffffffffffffffffffffffffffffffffffffff16636352211e836040518263ffffffff1660e01b81526004018082815260200191505060206040518083038186803b1580156155b357600080fd5b505afa1580156155c7573d6000803e3d6000fd5b505050506040513d60208110156155dd57600080fd5b810190808051906020019092919050505073ffffffffffffffffffffffffffffffffffffffff161461565a576040517f08c379a00000000000000000000000000000000000000000000000000000000081526004018080602001828103825260278152602001806172926027913960400191505060405180910390fd5b60005b607260008473ffffffffffffffffffffffffffffffffffffffff1673ffffffffffffffffffffffffffffffffffffffff168152602001908152602001600020805490508110156157615781607260008573ffffffffffffffffffffffffffffffffffffffff1673ffffffffffffffffffffffffffffffffffffffff16815260200190815260200160002082815481106156f257fe5b90600052602060002001541415615754576040517f08c379a00000000000000000000000000000000000000000000000000000000081526004018080602001828103825260268152602001806171d06026913960400191505060405180910390fd5b808060010191505061565d565b50607260008373ffffffffffffffffffffffffffffffffffffffff1673ffffffffffffffffffffffffffffffffffffffff1681526020019081526020016000208190806001815401808255809150506001900390600052602060002001600090919091909150555050565b603c8163ffffffff161161582b576040517f08c379a000000000000000000000000000000000000000000000000000000000815260040180806020018281038252602c81526020018061723f602c913960400191505060405180910390fd5b80606b60006101000a81548163ffffffff021916908363ffffffff1602179055507f4f27f6f220ffad585e728389bc2f0f6b74eeebeb43f95f53752a647cb6e7e687606b60009054906101000a900463ffffffff16604051808263ffffffff16815260200191505060405180910390a150565b6000606660009054906101000a900473ffffffffffffffffffffffffffffffffffffffff1673ffffffffffffffffffffffffffffffffffffffff1663e6d8a94b6040518163ffffffff1660e01b8152600401602060405180830381600087803b15801561590a57600080fd5b505af115801561591e573d6000803e3d6000fd5b505050506040513d602081101561593457600080fd5b810190808051906020019092919050505090506159d13073ffffffffffffffffffffffffffffffffffffffff16638da5cb5b6040518163ffffffff1660e01b815260040160206040518083038186803b15801561599057600080fd5b505afa1580156159a4573d6000803e3d6000fd5b505050506040513d60208110156159ba57600080fd5b81019080805190602001909291905050508261650d565b615a5a3073ffffffffffffffffffffffffffffffffffffffff16638da5cb5b6040518163ffffffff1660e01b815260040160206040518083038186803b158015615a1a57600080fd5b505afa158015615a2e573d6000803e3d6000fd5b505050506040513d6020811015615a4457600080fd5b81019080805190602001909291905050506165fc565b6000606760009054906101000a900473ffffffffffffffffffffffffffffffffffffffff1673ffffffffffffffffffffffffffffffffffffffff16633b304147846040518263ffffffff1660e01b81526004018082815260200191505060206040518083038186803b158015615acf57600080fd5b505afa158015615ae3573d6000803e3d6000fd5b505050506040513d6020811015615af957600080fd5b810190808051906020019092919050505090506000615b18607061683d565b9050600073ffffffffffffffffffffffffffffffffffffffff168273ffffffffffffffffffffffffffffffffffffffff161415615b83577f3728feb3fc1ef1bf4a24036afbe7d34b59c551bf0d2ab5564e87ec1734fa80dd60405160405180910390a1505050616025565b606660009054906101000a900473ffffffffffffffffffffffffffffffffffffffff1673ffffffffffffffffffffffffffffffffffffffff166316960d558383607260008673ffffffffffffffffffffffffffffffffffffffff1673ffffffffffffffffffffffffffffffffffffffff1681526020019081526020016000206040518463ffffffff1660e01b8152600401808473ffffffffffffffffffffffffffffffffffffffff1681526020018373ffffffffffffffffffffffffffffffffffffffff168152602001806020018281038252838181548152602001915080548015615c8e57602002820191906000526020600020905b815481526020019060010190808311615c7a575b5050945050505050600060405180830381600087803b158015615cb057600080fd5b505af1158015615cc4573d6000803e3d6000fd5b50505050606060755467ffffffffffffffff81118015615ce357600080fd5b50604051908082528060200260200182016040528015615d125781602001602082028036833780820191505090505b5090508281600081518110615d2357fe5b602002602001019073ffffffffffffffffffffffffffffffffffffffff16908173ffffffffffffffffffffffffffffffffffffffff168152505060008590506000600190505b60755481101561601e57600061020982026101f3840101604051602001808281526020019150506040516020818303038152906040528051906020012090508060001c9250606760009054906101000a900473ffffffffffffffffffffffffffffffffffffffff1673ffffffffffffffffffffffffffffffffffffffff16633b304147846040518263ffffffff1660e01b81526004018082815260200191505060206040518083038186803b158015615e2157600080fd5b505afa158015615e35573d6000803e3d6000fd5b505050506040513d6020811015615e4b57600080fd5b8101908080519060200190929190505050848381518110615e6857fe5b602002602001019073ffffffffffffffffffffffffffffffffffffffff16908173ffffffffffffffffffffffffffffffffffffffff1681525050615eb68560706168a990919063ffffffff16565b9450606660009054906101000a900473ffffffffffffffffffffffffffffffffffffffff1673ffffffffffffffffffffffffffffffffffffffff166316960d55858481518110615f0257fe5b602002602001015187607260008a73ffffffffffffffffffffffffffffffffffffffff1673ffffffffffffffffffffffffffffffffffffffff1681526020019081526020016000206040518463ffffffff1660e01b8152600401808473ffffffffffffffffffffffffffffffffffffffff1681526020018373ffffffffffffffffffffffffffffffffffffffff168152602001806020018281038252838181548152602001915080548015615fd657602002820191906000526020600020905b815481526020019060010190808311615fc2575b5050945050505050600060405180830381600087803b158015615ff857600080fd5b505af115801561600c573d6000803e3d6000fd5b50505050508080600101915050615d69565b5050505050505b50565b600060019054906101000a900460ff16806160475750616046614f98565b5b8061605d575060008054906101000a900460ff16155b6160b2576040517f08c379a000000000000000000000000000000000000000000000000000000000815260040180806020018281038252602e81526020018061707c602e913960400191505060405180910390fd5b60008060019054906101000a900460ff161590508015616102576001600060016101000a81548160ff02191690831515021790555060016000806101000a81548160ff0219169083151502179055505b61610a616915565b616112616a13565b80156161335760008060016101000a81548160ff0219169083151502179055505b50565b60008160000154146161b0576040517f08c379a000000000000000000000000000000000000000000000000000000000815260040180806020018281038252600c8152602001807f416c726561647920696e6974000000000000000000000000000000000000000081525060200191505060405180910390fd5b6001816001016000600173ffffffffffffffffffffffffffffffffffffffff1673ffffffffffffffffffffffffffffffffffffffff16815260200190815260200160002060006101000a81548173ffffffffffffffffffffffffffffffffffffffff021916908373ffffffffffffffffffffffffffffffffffffffff16021790555050565b6000828211156162ad576040517f08c379a000000000000000000000000000000000000000000000000000000000815260040180806020018281038252601e8152602001807f536166654d6174683a207375627472616374696f6e206f766572666c6f77000081525060200191505060405180910390fd5b818303905092915050565b6000808314156162cb5760009050616338565b60008284029050828482816162dc57fe5b0414616333576040517f08c379a00000000000000000000000000000000000000000000000000000000081526004018080602001828103825260218152602001806170d56021913960400191505060405180910390fd5b809150505b92915050565b600061638083836040518060400160405280601a81526020017f536166654d6174683a206469766973696f6e206279207a65726f000000000000815250616bba565b905092915050565b600043905090565b60006163a3826301ffc9a760e01b6163c4565b80156163bd57506163bb8263ffffffff60e01b6163c4565b155b9050919050565b60008060006163d38585616c80565b915091508180156163e15750805b9250505092915050565b6000808211616462576040517f08c379a000000000000000000000000000000000000000000000000000000000815260040180806020018281038252601a8152602001807f536166654d6174683a206469766973696f6e206279207a65726f00000000000081525060200191505060405180910390fd5b81838161646b57fe5b04905092915050565b60008083141561648757600090506164f4565b600082840290508284828161649857fe5b04146164ef576040517f08c379a00000000000000000000000000000000000000000000000000000000081526004018080602001828103825260218152602001806170d56021913960400191505060405180910390fd5b809150505b92915050565b600080823b905060008111915050919050565b606660009054906101000a900473ffffffffffffffffffffffffffffffffffffffff1673ffffffffffffffffffffffffffffffffffffffff16636b1b863a8383606760009054906101000a900473ffffffffffffffffffffffffffffffffffffffff166040518463ffffffff1660e01b8152600401808473ffffffffffffffffffffffffffffffffffffffff1681526020018381526020018273ffffffffffffffffffffffffffffffffffffffff1681526020019350505050600060405180830381600087803b1580156165e057600080fd5b505af11580156165f4573d6000803e3d6000fd5b505050505050565b6000616608606e61683d565b90505b600073ffffffffffffffffffffffffffffffffffffffff168173ffffffffffffffffffffffffffffffffffffffff161415801561667d575061664d606e616e28565b73ffffffffffffffffffffffffffffffffffffffff168173ffffffffffffffffffffffffffffffffffffffff1614155b156168395760008173ffffffffffffffffffffffffffffffffffffffff166370a08231606660009054906101000a900473ffffffffffffffffffffffffffffffffffffffff166040518263ffffffff1660e01b8152600401808273ffffffffffffffffffffffffffffffffffffffff16815260200191505060206040518083038186803b15801561670d57600080fd5b505afa158015616721573d6000803e3d6000fd5b505050506040513d602081101561673757600080fd5b81019080805190602001909291905050509050600081111561681d57606660009054906101000a900473ffffffffffffffffffffffffffffffffffffffff1673ffffffffffffffffffffffffffffffffffffffff16632b0ab1448484846040518463ffffffff1660e01b8152600401808473ffffffffffffffffffffffffffffffffffffffff1681526020018373ffffffffffffffffffffffffffffffffffffffff1681526020018281526020019350505050600060405180830381600087803b15801561680457600080fd5b505af1158015616818573d6000803e3d6000fd5b505050505b61683182606e6168a990919063ffffffff16565b91505061660b565b5050565b6000816001016000600173ffffffffffffffffffffffffffffffffffffffff1673ffffffffffffffffffffffffffffffffffffffff16815260200190815260200160002060009054906101000a900473ffffffffffffffffffffffffffffffffffffffff169050919050565b60008260010160008373ffffffffffffffffffffffffffffffffffffffff1673ffffffffffffffffffffffffffffffffffffffff16815260200190815260200160002060009054906101000a900473ffffffffffffffffffffffffffffffffffffffff16905092915050565b600060019054906101000a900460ff16806169345750616933614f98565b5b8061694a575060008054906101000a900460ff16155b61699f576040517f08c379a000000000000000000000000000000000000000000000000000000000815260040180806020018281038252602e81526020018061707c602e913960400191505060405180910390fd5b60008060019054906101000a900460ff1615905080156169ef576001600060016101000a81548160ff02191690831515021790555060016000806101000a81548160ff0219169083151502179055505b8015616a105760008060016101000a81548160ff0219169083151502179055505b50565b600060019054906101000a900460ff1680616a325750616a31614f98565b5b80616a48575060008054906101000a900460ff16155b616a9d576040517f08c379a000000000000000000000000000000000000000000000000000000000815260040180806020018281038252602e81526020018061707c602e913960400191505060405180910390fd5b60008060019054906101000a900460ff161590508015616aed576001600060016101000a81548160ff02191690831515021790555060016000806101000a81548160ff0219169083151502179055505b6000616af76143d2565b905080603360006101000a81548173ffffffffffffffffffffffffffffffffffffffff021916908373ffffffffffffffffffffffffffffffffffffffff1602179055508073ffffffffffffffffffffffffffffffffffffffff16600073ffffffffffffffffffffffffffffffffffffffff167f8be0079c531659141344cd1fd0a4f28419497f9722a3daafe3b4186f6b6457e060405160405180910390a3508015616bb75760008060016101000a81548160ff0219169083151502179055505b50565b60008083118290616c66576040517f08c379a00000000000000000000000000000000000000000000000000000000081526004018080602001828103825283818151815260200191508051906020019080838360005b83811015616c2b578082015181840152602081019050616c10565b50505050905090810190601f168015616c585780820380516001836020036101000a031916815260200191505b509250505060405180910390fd5b506000838581616c7257fe5b049050809150509392505050565b60008060606301ffc9a760e01b8460405160240180827bffffffffffffffffffffffffffffffffffffffffffffffffffffffff19168152602001915050604051602081830303815290604052907bffffffffffffffffffffffffffffffffffffffffffffffffffffffff19166020820180517bffffffffffffffffffffffffffffffffffffffffffffffffffffffff83818316178352505050509050600060608673ffffffffffffffffffffffffffffffffffffffff16617530846040518082805190602001908083835b60208310616d6e5780518252602082019150602081019050602083039250616d4b565b6001836020036101000a0380198251168184511680821785525050505050509050019150506000604051808303818686fa925050503d8060008114616dcf576040519150601f19603f3d011682016040523d82523d6000602084013e616dd4565b606091505b5091509150602081511015616df25760008094509450505050616e21565b81818060200190516020811015616e0857600080fd5b8101908080519060200190929190505050945094505050505b9250929050565b600060019050919050565b5080546000825590600052602060002090810190616e519190616e54565b50565b5b80821115616e6d576000816000905550600101616e55565b509056fe506572696f6469635072697a6553747261746567792f6572633732312d696e76616c6964506572696f6469635072697a6553747261746567792f746f6b656e2d6c697374656e65722d696e76616c6964506572696f6469635072697a6553747261746567792f7072697a652d706572696f642d6e6f742d6f7665724f776e61626c653a206e6577206f776e657220697320746865207a65726f2061646472657373506572696f6469635072697a6553747261746567792f6f6e6c792d6f776e65722d6f722d6c697374656e6572506572696f6469635072697a6553747261746567792f73706f6e736f72736869702d6e6f742d7a65726f506572696f6469635072697a6553747261746567792f7072697a652d706572696f642d677265617465722d7468616e2d7a65726f506572696f6469635072697a6553747261746567792f6f6e6c792d7072697a652d706f6f6c506572696f6469635072697a6553747261746567792f7472616e736665722d746f2d73656c66506572696f6469635072697a6553747261746567792f7072697a652d706f6f6c2d6e6f742d7a65726f506572696f6469635072697a6553747261746567792f726e672d6e6f742d7a65726f506572696f6469635072697a6553747261746567792f726e672d6e6f742d636f6d706c657465506572696f6469635072697a6553747261746567792f65726332302d696e76616c6964496e697469616c697a61626c653a20636f6e747261637420697320616c726561647920696e697469616c697a6564506572696f6469635072697a6553747261746567792f726e672d616c72656164792d726571756573746564536166654d6174683a206d756c7469706c69636174696f6e206f766572666c6f77506572696f6469635072697a6553747261746567792f6265666f726541776172644c697374656e65722d696e76616c6964506572696f6469635072697a6553747261746567792f63616e6e6f742d61776172642d65787465726e616c53616665436173743a2076616c756520646f65736e27742066697420696e2033322062697473506572696f6469635072697a6553747261746567792f7469636b65742d6e6f742d7a65726f506572696f6469635072697a6553747261746567792f7072697a6553747261746567794c697374656e65722d696e76616c6964506572696f6469635072697a6553747261746567792f6572633732312d6475706c6963617465506572696f6469635072697a6553747261746567792f726e672d696e2d666c69676874506572696f6469635072697a6553747261746567792f726e672d6e6f742d74696d65646f7574506572696f6469635072697a6553747261746567792f726e672d74696d656f75742d67742d36302d73656373506572696f6469635072697a6553747261746567792f726e672d6e6f742d726571756573746564506572696f6469635072697a6553747261746567792f756e617661696c61626c652d746f6b656ea264697066735822122016159662e9d4d86230637e85e4edde264436d26912e5d02bdbdbe7df27b6bd0764736f6c634300060c0033",
  "linkReferences": {},
  "deployedLinkReferences": {}
}