{
  "_format": "hh-sol-artifact-1",
  "contractName": "TokenListenerLibrary",
  "sourceName": "@pooltogether/pooltogether-contracts/contracts/token/TokenListenerLibrary.sol",
  "abi": [
    {
      "inputs": [],
      "name": "ERC165_INTERFACE_ID_TOKEN_LISTENER",
      "outputs": [
        {
          "internalType": "bytes4",
          "name": "",
          "type": "bytes4"
        }
      ],
      "stateMutability": "view",
      "type": "function"
    }
  ],
  "bytecode": "0x60b4610025600b82828239805160001a60731461001857fe5b30600052607381538281f3fe730000000000000000000000000000000000000000301460806040526004361060335760003560e01c8063b17b0ce3146038575b600080fd5b603e6073565b60405180827bffffffffffffffffffffffffffffffffffffffffffffffffffffffff1916815260200191505060405180910390f35b63ff5e34e760e01b8156fea2646970667358221220cce9f60a9f105922d20d645c2c2258a0259f38102797008836b9b3b7c20c682e64736f6c634300060c0033",
  "linkReferences": {},
  "deployedLinkReferences": {}
}